S01300004D69646970726F6A6563742E7372656397
S113000071C000008EC000008CC000008AC00000D7
S113001088C0000086C0000084C0000082C00000C8
S113002080C000007EC000007CC000007AC00000D8
S113003078C0000076C0000074C0000072C00000E8
S113004070C0000062C300006CC000006AC0000001
S11300507EC3000066C0000064C000002AC3000024
S113006060C0000075C000005CC000005AC0000001
S113007058C00000EFC2000054C0000052C000008D
S113008050C000004EC000004CC000004AC0000038
S113009048C0000046C0000044C0000042C0000048
S11300A040C000003EC000003CC000003AC0000058
S11300B038C0000036C0000034C0000032C0000068
S11300C030C000002EC000002CC000002AC0000078
S11300D028C0000026C0000024C0000022C0000088
S11300E020C0000011241FBECFEFD1E2DEBFCDBF80
S11300F000E00CBF12E0A0E0B2E0ECE7FAE000E0C0
S11301000BBF02C007900D92A630B107D9F729E0C2
S1130110A6E0B2E001C01D92AD30B207E1F763D4AE
S1130120ABC46ECF8FEF84B985B91AB88BB917B841
S113013088B9089583E38093C4001092C500109297
S1130140C00088E98093C10086E08093C2000895CE
S11301501F920F920FB60F9211248F939F93809149
S1130160C60090E090930102809300029F918F91CA
S11301700F900FBE0F901F901895E0ECF0E0908167
S113018095FFFDCF8093C6000895CF93DF93D62FBC
S1130190C42FF3DF8D2FF1DF8C2F8695EEDFDF91F7
S11301A0CF91089520910602322F337020910602D8
S11301B024FF23C18038910509F4A3C0E8F48830F2
S11301C0910509F46AC060F48230910509F44BC0CA
S11301D08430910509F454C0019709F02AC236C04D
S11301E08032910509F473C08034910509F47CC010
S11301F0409709F01EC25EC0811528E0920709F4F9
S1130200B6C078F4811522E0920709F494C08115F0
S113021024E0920709F49DC08115914009F009C2B8
S11302207DC0811520E2920709F4BDC028F4811530
S1130230904109F4AAC0FDC1811520E4920709F494
S1130240C0C08115904809F4CAC0F3C1832F90E05F
S11302509C01220F331F820F931F880F991F880F51
S1130260991FC0960895832F90E09C01220F331F9D
S1130270820F931F880F991F880F991FC2960895A4
S1130280832F90E09C01220F331F820F931F880F4E
S1130290991F880F991FC4960895832F90E09C019D
S11302A0220F331F820F931F880F991F880F991FE6
S11302B0C5960895832F90E09C01220F331F820F6F
S11302C0931F880F991F880F991FC7960895832F2E
S11302D090E09C01220F331F820F931F880F991FF8
S11302E0880F991FC9960895832F90E09C01220FCF
S11302F0331F820F931F880F991F880F991FCB9666
S11303000895832F90E09C01220F331F820F931FC7
S1130310880F991F880F991FCC960895832F90E01A
S11303209C01220F331F820F931F880F991F880F80
S1130330991FCE960895832F90E09C01220F331FBE
S1130340820F931F880F991F880F991F805C9F4FFE
S11303500895832F90E09C01220F331F820F931F77
S1130360880F991F880F991F8F5B9F4F0895832FC4
S113037090E09C01220F331F820F931F880F991F57
S1130380880F991F8D5B9F4F0895832F90E09C01E8
S1130390220F331F820F931F880F991F880F991FF5
S11303A08B5B9F4F0895832F90E09C01220F331F96
S11303B0820F931F880F991F880F991F895B9F4F86
S11303C00895832F90E09C01220F331F820F931F07
S11303D0880F991F880F991F885B9F4F0895832F5B
S11303E090E09C01220F331F820F931F880F991FE7
S11303F0880F991F865B9F4F08958038910509F4F3
S1130400A3C0E8F48830910509F46AC060F482302E
S1130410910509F44BC08430910509F454C0019747
S113042009F00AC136C08032910509F473C08034E2
S1130430910509F47CC0409709F0FEC05EC08115A7
S113044028E0920709F4B4C078F4811522E09207F9
S113045009F494C0811524E0920709F49CC0811525
S1130460914009F0E9C07DC0811520E2920709F4AA
S1130470B9C028F48115904109F4A7C0DDC08115E5
S113048020E4920709F4BBC08115904809F4C4C064
S1130490D3C0832F90E09C01220F331F820F931F40
S11304A0880F991F880F991FC0960895832F90E095
S11304B09C01220F331F820F931F880F991F880FEF
S11304C0991FC1960895832F90E09C01220F331F3A
S11304D0820F931F880F991F880F991FC296089542
S11304E0832F90E09C01220F331F820F931F880FEC
S11304F0991F880F991FC3960895832F90E09C013C
S1130500220F331F820F931F880F991F880F991F83
S1130510C4960895832F90E09C01220F331F820F0D
S1130520931F880F991F880F991FC5960895832FCD
S113053090E09C01220F331F820F931F880F991F95
S1130540880F991FC6960895832F90E09C01220F6F
S1130550331F820F931F880F991F880F991FC79607
S11305600895832F90E09C01220F331F820F931F65
S1130570880F991F880F991FC8960895832F90E0BC
S11305809C01220F331F820F931F880F991F880F1E
S1130590991FC9960895832F90E09C01220F331F61
S11305A0820F931F880F991F880F991FCA96089569
S11305B0832F90E09C01220F331F820F931F880F1B
S11305C0991F880F991FCB960895832F90E09C0163
S11305D0220F331F820F931F880F991F880F991FB3
S11305E0CC960895832F90E09C01220F331F820F35
S11305F0931F880F991F880F991FCD960895832FF5
S113060090E09C01220F331F820F931F880F991FC4
S1130610880F991FCE960895832F90E09C01220F96
S1130620331F820F931F880F991F880F991FCF962E
S1130630089580E090E0089580E090E00895EAE76E
S1130640F0E080818A6C8083ECE7F0E08081806652
S1130650808308951F920F920FB60F9211240BB648
S11306600F928F939F93EF93FF93809179008093E0
S11306700402ECE7F0E09081809106028C7086958C
S11306808695907E892B8083FF91EF919F918F9126
S11306900F900BBE0F900FBE0F901F90189514BCB7
S11306A085E085BD16BCEEE6F0E080818160808344
S11306B008951F920F920FB60F9211240BB60F924A
S11306C08F93EF93FF93EAE7F0E080818064808367
S11306D0FF91EF918F910F900BBE0F900FBE0F9073
S11306E01F9018951092800083E080936F00109201
S11306F085001092840084E690E0909389008093B2
S1130700880082E08093810008951F920F920FB6B3
S11307100F9211242F933F938F939F9320910B0259
S113072030910C028091020290910302281739073C
S113073029F480910A028F5F80930A029F918F911E
S11307403F912F910F900FBE0F901F9018951F92FD
S11307500F920FB60F9211248F939F9380910B02E7
S113076090910C02019690930C0280930B029F913E
S11307708F910F900FBE0F901F9018950F931F939A
S11307808C012227332710930302009302027093F3
S11307908900609388001F910F9108950F931F9310
S11307A040910B0250910C0280918400909185003D
S11307B060E070E0BA0155274427A0E0B0E08A0168
S11307C09B01082B192B2A2B3B2BC901B8011F9124
S11307D00F910895CF93DF9380910902809585B995
S11307E080910702882309F443C080910A02882378
S11307F009F43EC08091090290E0DC01A35FB74F89
S1130800FC01E35FFC4FEC01C35FDD4F4C91608161
S11308108881BBDC80910902E82FF0E0E35FFD4FA3
S1130820908191110FC040910D0860910D0380914A
S11308300D02ABDC81E08093090210920C0210924D
S11308400B0203C08F5F80930902E0910902F0E07C
S1130850EE0FFF1FEE0FFF1FE35FFB4F60817181FF
S1130860828193818BDF80910A02815080930A02F6
S1130870DF91CF91089581E08093080210920902DC
S113088010920C0210920B020895CF93DF93809183
S1130890090280FF11C090E00197FC01E35FFC4F67
S11308A0DC01A35FBD4F8C9160818F7E24D0809149
S11308B009028F5F80930902C0910902D0E0FE0112
S11308C0E35FFD4F1082FE01E35FFC4F1082FE01E7
S11308D0E35FF74F108262DFCC0FDD1FCC0FDD1F0B
S11308E0C35FDB4F688379838A839B8310920802FA
S11308F0DF91CF9108950F931F93CF93DF93082F28
S1130900162F909109029E3F09F4BFDF90910802CF
S1130910992399F190910902C92FD0E0FE01E35F78
S1130920FD4F0083FE01E35FFC4F108380910402BE
S1130930FE01E35FF74F808391110FC0CC0FDD1FE1
S1130940CC0FDD1FC35FDB4F188219821A821B8212
S113095010920C0210920B020BC020DFCC0FDD1F93
S1130960CC0FDD1FC35FDB4F688379838A839B834E
S1130970809109028F5F80930902DF91CF911F91CB
S11309800F910895CF93C82F86FF11C0809107025D
S113099081111AC081E0809307021092090280E05D
S11309A090E018DF10920C0210920B020DC080919F
S11309B00702882349F0109207028091090280FF00
S11309C003C080E090E006DFCC2334F48091080279
S11309D0811107C050DF05C080910802813009F4FD
S11309E054DFCF9108959EDB80E895E2A3DB7ADEA5
S11309F056DE25DE789400E010E001C08E01C0B11F
S1130A0089B1D0E0D82B86B180930602809106028A
S1130A10B9DF80E090E0DEDE98012C273D27C90194
S1130A208C239D23009789F0109106021C70169563
S1130A3016951069B7DB082F682F812F5CDF409172
S1130A400402602F812FA1DBD9CFC9018023912318
S1130A500097A1F2209106022C7026952695206815
S1130A60F22EA0DB182F682F8F2D45DF4091040252
S10F0A70612F8F2D8ADBC2CFF894FFCFDA
S1090A7CFF006400C80045
S9030000FC
