S01300004D69646970726F6A6563742E7372656397
S113000071C000008EC000008CC000008AC00000D7
S113001088C0000086C0000084C0000082C00000C8
S113002080C000007EC000007CC000007AC00000D8
S113003078C0000076C0000074C0000072C00000E8
S113004070C0000046C100006CC000006AC000001F
S113005068C0000066C0000064C0000051C2000017
S113006060C0000075C000005CC000005AC0000001
S113007058C0000020C2000054C0000052C000005C
S113008050C000004EC000004CC000004AC0000038
S113009048C0000046C0000044C0000042C0000048
S11300A040C000003EC000003CC000003AC0000058
S11300B038C0000036C0000034C0000032C0000068
S11300C030C000002EC000002CC000002AC0000078
S11300D028C0000026C0000024C0000022C0000088
S11300E020C0000011241FBECFEFD1E2DEBFCDBF80
S11300F000E00CBF12E0A0E0B2E0EAE1F5E000E0CD
S11301000BBF02C007900D92A631B107D9F724E0C6
S1130110A6E1B2E001C01D92AB31B207E1F78BD189
S1130120FAC16ECF8FEF84B985B91AB88BB917B8F5
S113013088B9089583E38093C4001092C500109297
S1130140C00088E98093C10086E08093C2000895CE
S11301501F920F920FB60F9211248F939F93809149
S1130160C60090E090930102809300029F918F91CA
S11301700F900FBE0F901F901895E0ECF0E0908167
S113018095FFFDCF8093C6000895CF93DF93D62FBC
S1130190C42FF3DF8D2FF1DF8C2F8695EEDFDF91F7
S11301A0CF910895909116029370883049F140F4EC
S11301B08230C1F08430E9F0813009F044C00BC0D2
S11301C0803261F118F4803111F13DC0803469F15D
S11301D0803891F138C0892F880F890F880F880FD4
S11301E0805D0895892F880F890F880F880F8E5C92
S11301F00895892F880F890F880F880F8C5C0895C4
S1130200892F880F890F880F880F8B5C0895892F99
S1130210880F890F880F880F895C0895892F880FAC
S1130220890F880F880F875C0895892F880F890F9D
S1130230880F880F855C0895892F880F890F880F90
S1130240880F845C089580E008951092800082E015
S113025080936F0010928500109284008DE790E0E7
S1130260909389008093880081E0809381000895B1
S113027080910202882361F1E0911802F0E0E35FCB
S1130280FD4F80817ADF80911802809585B9E091D5
S11302901802EF5FE0931802F0E0EE0FFF1FED5F2E
S11302A0FD4F80819181009779F41092180280911A
S11302B0030290910402909313028093120210920D
S11302C01A02109219020895909313028093120255
S11302D008951F920F920FB60F9211240BB60F922E
S11302E02F933F934F935F936F937F938F939F933A
S11302F0AF93BF93EF93FF938091190290911A02E9
S1130300019690931A028093190220911902309158
S11303101A0280911202909113022817390729F4C6
S11303208091190290911A02A3DFFF91EF91BF917E
S1130330AF919F918F917F916F915F914F913F9179
S11303402F910F900BBE0F900FBE0F901F9018951A
S113035090911802292F30E0F901E35FFD4F80836B
S1130360F901E55EFD4F608380911402F901E55EB9
S1130370FC4F8083F901EE0FFF1FED5FFD4F1182EB
S113038010829F5F90931802089581E08093170272
S11303901092180208958091180290E0FC01E35F26
S11303A0FD4F1082FC01E55EFD4F1082FC01E55E0D
S11303B0FC4F1082FC01EE0FFF1FED5FFD4F118219
S11303C01082109217020895CF93DF93C62FD42F73
S11303D090911702913041F4882324F4642F8C2FD8
S11303E0B7DF08C0D8DF06C0882324F4CEDF6D2F22
S11303F08C2FAEDFDF91CF91089586FF16C08091D8
S11304000202811117C081E0809302021092180247
S1130410809103029091040290931302809312023C
S113042010921A0210921902089580910202811109
S113043010920202089576DE80E895E27BDE05DF05
S11304407894D0E001C0DC2FC9B1C09586B1809505
S11304508093160280911602D0DF9D2F9C27892F4E
S11304608C2399F0D0911602DC70D695D695D0697C
S113047099DE182F80911602412F6D2FA5DF409130
S11304801402612F8D2F81DEDECF892F8D23D9F2C7
S1130490109116021C7016951695106883DED82FDD
S11304A0809116024D2F612F8FDF409114026D2F22
S11304B0812F6BDEC8CF1F920F920FB60F921124BB
S11304C00BB60F928F939F93EF93FF9380917900D4
S11304D080931402ECE7F0E09081809116028C7016
S11304E086958695907E892B8083FF91EF919F91CD
S11304F08F910F900BBE0F900FBE0F901F90189509
S11305001F920F920FB60F92112416BC0F900FBEBC
S10D05100F901F901895F894FFCF88
S113051AFF00016400C8002C01900100004142431D
S109052A44466400640075
S9030000FC
