S01300004D69646970726F6A6563742E7372656397
S113000071C000008EC000008CC000008AC00000D7
S113001088C0000086C0000084C0000082C00000C8
S113002080C000007EC000007CC000007AC00000D8
S113003078C0000076C0000074C0000072C00000E8
S113004070C00000E5C100006CC000006AC0000080
S113005068C0000066C0000064C00000CEC100009B
S113006060C0000073C000005CC000005AC0000003
S113007058C000009DC1000054C0000052C00000E0
S113008050C000004EC000004CC000004AC0000038
S113009048C0000046C0000044C0000042C0000048
S11300A040C000003EC000003CC000003AC0000058
S11300B038C0000036C0000034C0000032C0000068
S11300C030C000002EC000002CC000002AC0000078
S11300D028C0000026C0000024C0000022C0000088
S11300E020C0000011241FBECFEFD1E2DEBFCDBF80
S11300F000E00CBF12E0A0E0B2E0E2E9F4E000E0CE
S11301000BBF02C007900D92A430B107D9F727E0C6
S1130110A4E0B2E001C01D92AC30B207E1F70ED109
S1130120B6C16ECF8FEF84B985B91AB88BB908956B
S113013083E38093C4001092C5001092C00088E944
S11301408093C10086E08093C20008951F920F92AD
S11301500FB60F9211248F939F938091C60090E065
S113016090930102809300029F918F910F900FBE94
S11301700F901F901895E0ECF0E0908195FFFDCF73
S11301808093C6000895CF93DF93D62FC42FF3DF57
S11301908D2FF1DF8C2F8695EEDFDF91CF910895BF
S11301A0909104029370883049F140F48230C1F098
S11301B08430E9F0813009F044C00BC0803261F131
S11301C018F4803111F13DC0803469F1803891F127
S11301D038C0892F880F890F880F880F805D089594
S11301E0892F880F890F880F880F8E5C0895892FB7
S11301F0880F890F880F880F8C5C0895892F880FCA
S1130200890F880F880F8B5C0895892F880F890FB9
S1130210880F880F895C0895892F880F890F880FAC
S1130220880F875C0895892F880F890F880F880F9E
S1130230855C0895892F880F890F880F880F845C47
S1130240089580E0089580910502882309F1E091E2
S11302500702EF5FE0930702F0E0EE0FFF1FE45F99
S1130260FB4F80819181892B31F410920702109207
S11302700B0210920A02E0910702F0E0EE0FFF1F5A
S1130280E45FFB4F8081918190930902809308027F
S1130290089590910702292F30E0F901E45FFD4FA2
S11302A08083F901E45FFC4F608380910202F901CD
S11302B0E45FF94F8083F901EE0FFF1FE45FFB4F0A
S11302C0118210829F5F90930702089581E08093CA
S11302D006021092070208958091070290E0FC0143
S11302E0E45FFD4F1082FC01E45FFC4F1082FC01CF
S11302F0E45FF94F1082FC01EE0FFF1FE45FFB4F38
S113030011821082109206020895CF93DF93C62FB4
S1130310D42F90910602913041F4882324F4642F61
S11303208C2FB7DF08C0D8DF06C0882324F4CEDFC3
S11303306D2F8C2FAEDFDF91CF910895F3DE80E82F
S113034095E2F6DE789420E001C02C2F99B1C92FF4
S1130350C09595B9922F9C27892F8C2399F0D09121
S11303600402DC70D695D695D0691ADF182F8091D7
S11303700402412F6D2FC9DF40910202612F8D2F9E
S113038002DFE3CF892F822301F3D0910402DC70D2
S1130390D695D695D06404DF182F80910402412F9E
S11303A06D2FB3DF40910202612F8D2FECDECDCF94
S11303B01F920F920FB60F9211240BB60F928F93C8
S11303C09F93EF93FF938091790080930202ECE76F
S11303D0F0E09081809104028C7086958695907EE1
S11303E0892B8083FF91EF919F918F910F900BBE8A
S11303F00F900FBE0F901F9018951F920F920FB67B
S11304000F92112416BC0F900FBE0F901F901895D9
S11304101F920F920FB60F9211240BB60F922F93C7
S11304203F934F935F936F937F938F939F93AF9378
S1130430BF93EF93FF9380910A0290910B02019670
S113044090930B0280930A0220910A0230910B02CE
S113045080910802909109022817390729F48091A4
S11304600A0290910B02EFDEFF91EF91BF91AF91E1
S11304709F918F917F916F915F914F913F912F91B8
S11304800F900BBE0F900FBE0F901F901895F8940D
S1050490FFCF98
S1070492FF006400FF
S9030000FC
