:1000000071C000008EC000008CC000008AC00000DB
:1000100088C0000086C0000084C0000082C00000CC
:1000200080C000007EC000007CC000007AC00000DC
:1000300078C0000076C0000074C0000072C00000EC
:1000400070C000007AC100006CC000006AC00000EF
:1000500068C0000066C0000064C0000063C100000A
:1000600060C0000073C000005CC000005AC0000007
:1000700058C0000032C1000054C0000052C000004F
:1000800050C000004EC000004CC000004AC000003C
:1000900048C0000046C0000044C0000042C000004C
:1000A00040C000003EC000003CC000003AC000005C
:1000B00038C0000036C0000034C0000032C000006C
:1000C00030C000002EC000002CC000002AC000007C
:1000D00028C0000026C0000024C0000022C000008C
:1000E00020C0000011241FBECFEFD1E2DEBFCDBF84
:1000F00000E00CBF12E0A0E0B2E0ECEBF3E000E0C7
:100100000BBF02C007900D92A430B107D9F727E0CA
:10011000A4E0B2E001C01D92AB30B207E1F7B9D064
:100120004BC16ECF8FEF84B985B91AB88BB90895DA
:1001300083E38093C4001092C5001092C00088E948
:100140008093C10086E08093C20008951F920F92B1
:100150000FB60F9211248F939F938091C60090E069
:1001600090930102809300029F918F910F900FBE98
:100170000F901F901895E0ECF0E0908195FFFDCF77
:100180008093C6000895CF93DF93D62FC42FF3DF5B
:100190008D2FF1DF8C2F8695EEDFDF91CF910895C3
:1001A000909104029370883049F140F48230C1F09C
:1001B0008430E9F0813009F044C00BC0803261F135
:1001C00018F4803111F13DC0803469F1803891F12B
:1001D00038C0892F880F890F880F880F805D089598
:1001E000892F880F890F880F880F8E5C0895892FBB
:1001F000880F890F880F880F8C5C0895892F880FCE
:10020000890F880F880F8B5C0895892F880F890FBD
:10021000880F880F895C0895892F880F890F880FB0
:10022000880F875C0895892F880F890F880F880FA2
:10023000855C0895892F880F890F880F880F845C4B
:10024000089580E0089580910502882309F1E091E6
:100250000602EF5FE0930602F0E0EE0FFF1FE55F9E
:10026000FB4F80819181892B31F41092060210920C
:100270000A0210920902E0910602F0E0EE0FFF1F61
:10028000E55FFB4F80819181909308028093070284
:10029000089548DF80E895E24BDF789490E0DFE74F
:1002A00001C09C2FC9B1C095292F2C27822F8C23E8
:1002B00049F09091040274DF40910202682F81E9B5
:1002C00062DFEFCF822F892361F3D5B969DF4091D7
:1002D0000202682F80E857DFE4CF1F920F920FB61B
:1002E0000F9211240BB60F928F939F93EF93FF936E
:1002F0008091790080930202ECE7F0E09081809198
:1003000004028C7086958695907E892B8083FF9160
:10031000EF919F918F910F900BBE0F900FBE0F909A
:100320001F9018951F920F920FB60F92112416BCB2
:100330000F900FBE0F901F9018951F920F920FB63F
:100340000F9211240BB60F922F933F934F935F930D
:100350006F937F938F939F93AF93BF93EF93FF938D
:100360008091090290910A02019690930A0280936B
:1003700009022091090230910A02809107029091AE
:1003800008022817390729F48091090290910A027E
:100390005ADFFF91EF91BF91AF919F918F917F9124
:1003A0006F915F914F913F912F910F900BBE0F90E6
:0C03B0000FBE0F901F901895F894FFCF1F
:0403BC00FF006400DA
:00000001FF
