:10000000F1C0000006C1000004C1000002C10000F0
:1000100000C10000FEC00000FCC00000FAC00000EB
:10002000F8C00000F6C00000F4C00000F2C00000FC
:10003000F0C00000EEC00000ECC00000EAC000000C
:10004000E8C00000E6C00000E4C00000E2C000001C
:10005000E0C00000DEC00000DCC00000DAC000002C
:10006000D8C00000D7C00000D4C00000D2C000003B
:10007000D0C00000CEC00000CCC00000CAC000004C
:10008000C8C00000C6C00000C4C00000C2C000005C
:10009000C0C00000BEC00000BCC00000BAC000006C
:1000A000B8C00000B6C00000B4C00000B2C000007C
:1000B000B0C00000AEC00000ACC00000AAC000008C
:1000C000A8C00000A6C00000A4C00000A2C000009C
:1000D000A0C000009EC000009CC000009AC00000AC
:1000E00098C000006601470168014B0169014901A0
:1000F00069014D01690169016901690169016901CC
:1001000069015101690169016901690169016901B7
:1001100069014F01690169016901690169016901A9
:100120006901550169016901690169016901690193
:10013000690169016901690169016901690169016F
:100140006901530169016901690169016901690175
:10015000690169016901690169016901690169014F
:10016000690159016901690169016901690169014F
:10017000690169016901690169016901690169012F
:10018000690169016901690169016901690169011F
:10019000690169016901690169016901690169010F
:1001A0006901570169016901690169016901690111
:1001B00069016901690169016901690169016901EF
:1001C00069016901690169016901690169016901DF
:1001D00069016901690169016901690169016901CF
:1001E00069015B0111241FBECFEFD1E2DEBFCDBF9D
:1001F00000E00CBF12E0A0E0B2E0ECE3F3E000E0CE
:100200000BBF02C007900D92A230B107D9F766D09C
:1002100093C0F6CE1F920F920FB60F9211248F93B8
:100220009F938091C60090E090930102809300021A
:100230009F918F910F900FBE0F901F901895E0EC3B
:10024000F0E0908195FFFDCF8093C600089583E391
:100250008093C4001092C5001092C00088E980937A
:10026000C10086E08093C20008958FEF84B985B9FC
:100270001AB88BB90895A62F482F50E04150510964
:100280004038510530F54E585F4FFA014FC0B2E08B
:1002900020C0B3E01EC0B4E01CC0B5E01AC0B6E098
:1002A00018C0B7E016C0B8E014C0B9E012C0BAE098
:1002B00010C0BBE00EC0BCE00CC0392F3A2339138C
:1002C00001C0B45F990F2150C1F706C0B0E001C072
:1002D000B1E027E091E0F1CF8B2F0895C6DF80E8F1
:1002E00095E2B5DF789420E001C02C2F99B1C92F99
:1002F000C09595B9922F9C27D92FDC2351F081E925
:100300009EDF60E08D2FB7DF845C99DF88E497DFA4
:10031000ECCFD92FD22349F381E891DF60E08D2F14
:10032000AADF845C8CDF88E48ADFDFCFEE0FFF1F5B
:0C0330000590F491E02D1994F894FFCF93
:02033C00FF00C0
:00000001FF
