S01300004D69646970726F6A6563742E7372656397
S113000071C000008EC000008CC000008AC00000D7
S113001088C0000086C0000084C0000082C00000C8
S113002080C000007EC000007CC000007AC00000D8
S113003078C0000076C0000074C0000072C00000E8
S113004070C000006EC000006CC000006AC00000F8
S113005068C0000066C0000064C0000062C0000008
S113006060C000005FC000005CC000005AC0000017
S113007058C0000056C0000054C0000052C0000028
S113008050C000004EC000004CC000004AC0000038
S113009048C0000046C0000044C0000042C0000048
S11300A040C000003EC000003CC000003AC0000058
S11300B038C0000036C0000034C0000032C0000068
S11300C030C000002EC000002CC000002AC0000078
S11300D028C0000026C0000024C0000022C0000088
S11300E020C0000011241FBECFEFD1E2DEBFCDBF80
S11300F000E00CBF12E0A0E0B2E0EAE9F2E000E0C8
S11301000BBF02C007900D92A430B107D9F722E0CB
S1130110A4E0B2E001C01D92A530B207E1F791D08E
S1130120BAC06ECF1F920F920FB60F9211248F9305
S11301309F938091C60090E0909302028093010205
S11301409F918F910F900FBE0F901F901895E0EC28
S1130150F0E0908195FFFDCF8093C6000895CF9382
S1130160C62FF5DF8C2FF3DF809100028695EFDF39
S1130170CF91089583E38093C4001092C500109238
S1130180C00088E98093C10086E08093C20008958E
S11301908FEF84B985B91AB88BB908959091040288
S11301A09370883049F140F48230C1F08430E9F032
S11301B0813009F044C00BC0803261F118F4803101
S11301C011F13DC0803469F1803891F138C0892F34
S11301D0880F890F880F880F805D0895892F880FF5
S11301E0890F880F880F8E5C0895892F880F890FD7
S11301F0880F880F8C5C0895892F880F890F880FCA
S1130200880F8B5C0895892F880F890F880F880FBA
S1130210895C0895892F880F890F880F880F875C60
S11302200895892F880F890F880F880F855C08959A
S1130230892F880F890F880F880F845C089580E0C8
S11302400895A6DF80E895E295DF789420E001C068
S11302502C2F99B1C92FC09595B9922F9C27892F1E
S11302608C2369F0D091040299DF90910402DC7030
S1130270D695D695682F8D2F806971DFE9CFD92F58
S1130280D22331F381E863DF8D2F88DF845C5FDF65
S10D029088E45DDFDDCFF894FFCFB2
S107029A64FF0000F9
S9030000FC
