S01300004D69646970726F6A6563742E7372656397
S113000071C000008EC000008CC000008AC00000D7
S113001088C0000086C0000084C0000082C00000C8
S113002080C000007EC000007CC000007AC00000D8
S113003078C0000076C0000074C0000072C00000E8
S113004070C000009FC100006CC000006AC00000C6
S113005068C0000066C0000064C0000031C1000038
S113006060C0000075C000005CC000005AC0000001
S113007058C00000F5C0000054C0000052C0000089
S113008050C000004EC000004CC000004AC0000038
S113009048C0000046C0000044C0000042C0000048
S11300A040C000003EC000003CC000003AC0000058
S11300B038C0000036C0000034C0000032C0000068
S11300C030C000002EC000002CC000002AC0000078
S11300D028C0000026C0000024C0000022C0000088
S11300E020C0000011241FBECFEFD1E2DEBFCDBF80
S11300F000E00CBF12E0A0E0B2E0E6EEF5E000E0C4
S11301000BBF02C007900D92A630B107D9F727E0C4
S1130110A6E0B2E001C01D92AC30B207E1F723D2F1
S113012060C26ECF8FEF84B985B91AB88BB917B88E
S113013088B9089583E38093C4001092C500109297
S1130140C00088E98093C10086E08093C2000895CE
S11301501F920F920FB60F9211248F939F93809149
S1130160C60090E090930102809300029F918F91CA
S11301700F900FBE0F901F901895E0ECF0E0908167
S113018095FFFDCF8093C6000895CF93DF93D62FBC
S1130190C42FF3DF8D2FF1DF8C2F8695EEDFDF91F7
S11301A0CF910895909106029370883049F140F4FC
S11301B08230C1F08430E9F0813009F044C00BC0D2
S11301C0803261F118F4803111F13DC0803469F15D
S11301D0803891F138C0892F880F890F880F880FD4
S11301E0805D0895892F880F890F880F880F8E5C92
S11301F00895892F880F890F880F880F8C5C0895C4
S1130200892F880F890F880F880F8B5C0895892F99
S1130210880F890F880F880F895C0895892F880FAC
S1130220890F880F880F875C0895892F880F890F9D
S1130230880F880F855C0895892F880F890F880F90
S1130240880F845C089580E00895EAE7F0E08081F7
S11302508A6C8083ECE7F0E0808180668083089577
S11302601F920F920FB60F9211240BB60F928F9319
S11302709F93EF93FF938091790080930402ECE7BE
S1130280F0E09081809106028C7086958695907E30
S1130290892B8083FF91EF919F918F910F900BBEDB
S11302A00F900FBE0F901F90189514BC85E085BD6C
S11302B08FEF86BDEEE6F0E0808181608083089553
S11302C01F920F920FB60F9211248F938FEF86BD5A
S11302D08F910F900FBE0F901F9018951092800071
S11302E082E080936F0010928500109284008DE765
S11302F090E0909389008093880081E0809381004E
S11303000895CF93DF93809107028823C1F18091F0
S1130310090290E0DC01A45FB94FFC01E45FFC4FEB
S1130320EC01C45FDD4F4C91608188812EDF8091A8
S11303300902E82FF0E0E45FFD4F908191110FC0B6
S113034040910C0660910C0380910C021EDF81E049
S11303508093090210920B0210920A0203C08F5F6D
S113036080930902E0910902F0E0EE0FFF1FE45FC1
S1130370FB4F808191819093030280930202DF916D
S1130380CF9108951F920F920FB60F9211240BB6BE
S11303900F922F933F934F935F936F937F938F931A
S11303A09F93AF93BF93EF93FF9380910A02909131
S11303B00B02019690930B0280930A02809109022A
S11303C08695809585B920910A0230910B0280911F
S11303D00202909103022817390729F480910A0236
S11303E090910B028EDFFF91EF91BF91AF919F919E
S11303F08F917F916F915F914F913F912F910F90CA
S11304000BBE0F900FBE0F901F90189581E0809344
S113041008021092090210920B0210920A02089527
S11304208091090280FF11C090E00197FC01E45F14
S1130430FC4FDC01A45FBD4F8C9160818F7E22D084
S1130440809109028F5F809309028091090290E0F4
S1130450FC01E45FFD4F1082FC01E45FFC4F10825D
S1130460FC01E45FF94F108220910A0230910B02E3
S1130470FC01EE0FFF1FE45FFB4F318320831092DA
S113048008020895CF93DF93D82FC62F90910902C5
S11304909E3F09F4C5DF90910802992381F1909160
S11304A00902292F30E0F901E45FFD4FD083F901FF
S11304B0E45FFC4FC08380910402F901E45FF94FCB
S11304C0808391110CC0F901EE0FFF1FE45FFB4F15
S11304D01182108210920B0210920A020BC08091BA
S11304E00A0290910B02F901EE0FFF1FE45FFB4F2C
S11304F091838083809109028F5F80930902DF9149
S1130500CF910895CF93C82F86FF11C08091070221
S113051081111AC081E0809307021092090280E0E1
S113052090E0EFDE10920B0210920A020DC080914F
S11305300702882349F0109207028091090280FF84
S113054003C080E090E0DDDECC2334F48091080227
S1130550811107C05BDF05C080910802813009F476
S11305605FDFCF910895DEDD80E895E2E3DDB6DE5E
S11305709CDE6BDE7894D0E001C0DC2FC9B1C0955D
S113058086B180958093060280910602BBDF9D2F81
S11305909C27892F8C2389F0D0910602DC70D69594
S11305A0D695D069FFDD182F682F8D2F6BDF409112
S11305B00402612F8D2FE9DDE0CF892F8D23E9F22D
S11305C0109106021C70169516951068EBDDD82F55
S11305D0682F812F57DF409104026D2F812FD5DDC5
S10905E0CCCFF894FFCF1C
S10905E6FF006400C800E0
S9030000FC
