S01300004D69646970726F6A6563742E7372656397
S113000071C000008EC000008CC000008AC00000D7
S113001088C0000086C0000084C0000082C00000C8
S113002080C000007EC000007CC000007AC00000D8
S113003078C0000076C0000074C0000072C00000E8
S113004070C0000056C100006CC000006AC000000F
S113005068C0000066C0000064C0000096C20000D2
S113006060C0000075C000005CC000005AC0000001
S113007058C0000065C2000054C0000052C0000017
S113008050C000004EC000004CC000004AC0000038
S113009048C0000046C0000044C0000042C0000048
S11300A040C000003EC000003CC000003AC0000058
S11300B038C0000036C0000034C0000032C0000068
S11300C030C000002EC000002CC000002AC0000078
S11300D028C0000026C0000024C0000022C0000088
S11300E020C0000011241FBECFEFD1E2DEBFCDBF80
S11300F000E00CBF12E0A0E0B2E0E4EAF5E000E0CA
S11301000BBF02C007900D92A630B107D9F727E0C4
S1130110A6E0B2E001C01D92AC30B207E1F7D4D141
S11301203FC26ECF8FEF84B985B91AB88BB917B8AF
S113013088B9089583E38093C4001092C500109297
S1130140C00088E98093C10086E08093C2000895CE
S11301501F920F920FB60F9211248F939F93809149
S1130160C60090E090930102809300029F918F91CA
S11301700F900FBE0F901F901895E0ECF0E0908167
S113018095FFFDCF8093C6000895CF93DF93D62FBC
S1130190C42FF3DF8D2FF1DF8C2F8695EEDFDF91F7
S11301A0CF910895909106029370883049F140F4FC
S11301B08230C1F08430E9F0813009F044C00BC0D2
S11301C0803261F118F4803111F13DC0803469F15D
S11301D0803891F138C0892F880F890F880F880FD4
S11301E0805D0895892F880F890F880F880F8E5C92
S11301F00895892F880F890F880F880F8C5C0895C4
S1130200892F880F890F880F880F8B5C0895892F99
S1130210880F890F880F880F895C0895892F880FAC
S1130220890F880F880F875C0895892F880F890F9D
S1130230880F880F855C0895892F880F890F880F90
S1130240880F845C089580E008951092800082E015
S113025080936F0010928500109284008DE790E0E7
S1130260909389008093880081E0809381000895B1
S1130270CF93DF93809107028823C1F18091090213
S113028090E0DC01A45FB94FFC01E45FFC4FEC019A
S1130290C45FDD4F4C916081888177DF80910902D2
S11302A0E82FF0E0E45FFD4F908191110FC0409181
S11302B00C0660910C0380910C0267DF81E080934F
S11302C0090210920B0210920A0203C08F5F8093FE
S11302D00902E0910902F0E0EE0FFF1FE45FFB4F1B
S11302E0808191819093030280930202DF91CF91E8
S11302F008951F920F920FB60F9211240BB60F920E
S11303002F933F934F935F936F937F938F939F9319
S1130310AF93BF93EF93FF9380910A0290910B02E6
S1130320019690930B0280930A02809109028095B2
S113033085B920910A0230910B02809102029091BA
S113034003022817390729F480910A0290910B02BD
S11303508FDFFF91EF91BF91AF919F918F917F912B
S11303606F915F914F913F912F910F900BBE0F9022
S11303700FBE0F901F90189590910802992381F158
S113038090910902292F30E0F901E45FFD4F808349
S1130390F901E45FFC4F608380910402F901E45F9A
S11303A0F94F808391110CC0F901EE0FFF1FE45F38
S11303B0FB4F1182108210920B0210920A020BC0A2
S11303C080910A0290910B02F901EE0FFF1FE45F86
S11303D0FB4F91838083809109028F5F8093090290
S11303E0089581E0809308021092090210920B0292
S11303F010920A0208954091090240FF1FC0842F01
S113040090E09C0121503109FC01E45FFD4FD901CA
S1130410A45FBD4F5C915F7E5083F901E45FFC4FA4
S11304202081FC01E45FFC4F208320910402FC0145
S1130430E45FF94F20834F5F4093090280910902E2
S113044090E0FC01E45FFD4F1082FC01E45FFC4F8F
S11304501082FC01E45FF94F108220910A0230916E
S11304600B02FC01EE0FFF1FE45FFB4F318320837F
S1130470109208020895CF93C82F86FF11C080916F
S11304800702811112C081E08093070210920902D1
S113049080E090E0EDDE10920B0210920A0205C09B
S11304A080910702811110920702CC2334F48091C9
S11304B00802811107C095DF05C0809108028130D0
S11304C009F499DFCF9108952DDE80E895E232DEBC
S11304D0BCDE7894D0E001C0DC2FC9B1C09586B1F0
S11304E080958093060280910602C5DF9D2F9C278C
S11304F0892F8C2389F0D0910602DC70D695D6958D
S1130500D06950DE182F682F8D2F36DF40910402FA
S1130510612F8D2F3ADEE0CF892F8D23E9F21091E0
S113052006021C701695169510683CDED82F682FAD
S1130530812F22DF409104026D2F812F26DECCCF44
S11305401F920F920FB60F9211240BB60F928F9336
S11305509F93EF93FF938091790080930402ECE7DB
S1130560F0E09081809106028C7086958695907E4D
S1130570892B8083FF91EF919F918F910F900BBEF8
S11305800F900FBE0F901F9018951F920F920FB6E9
S11305900F92112416BC0F900FBE0F901F90189548
S10705A0F894FFCFF9
S10905A4FF006400C80022
S9030000FC
