S01300004D69646970726F6A6563742E7372656397
S113000071C000008EC000008CC000008AC00000D7
S113001088C0000086C0000084C0000082C00000C8
S113002080C000007EC000007CC000007AC00000D8
S113003078C0000076C0000074C0000072C00000E8
S113004070C0000056C100006CC000006AC000000F
S113005068C0000066C0000064C00000A4C20000C4
S113006060C0000075C000005CC000005AC0000001
S113007058C0000073C2000054C0000052C0000009
S113008050C000004EC000004CC000004AC0000038
S113009048C0000046C0000044C0000042C0000048
S11300A040C000003EC000003CC000003AC0000058
S11300B038C0000036C0000034C0000032C0000068
S11300C030C000002EC000002CC000002AC0000078
S11300D028C0000026C0000024C0000022C0000088
S11300E020C0000011241FBECFEFD1E2DEBFCDBF80
S11300F000E00CBF17E0A0E0B2E0E0ECF5E000E0C7
S11301000BBF02C007900D92A630B107D9F727E0C4
S1130110A6E0B7E001C01D92AC30B207E1F7E2D12E
S11301204DC26ECF8FEF84B985B91AB88BB917B8A1
S113013088B9089583E38093C4001092C500109297
S1130140C00088E98093C10086E08093C2000895CE
S11301501F920F920FB60F9211248F939F93809149
S1130160C60090E090930102809300029F918F91CA
S11301700F900FBE0F901F901895E0ECF0E0908167
S113018095FFFDCF8093C6000895CF93DF93D62FBC
S1130190C42FF3DF8D2FF1DF8C2F8695EEDFDF91F7
S11301A0CF910895909106079370883049F140F4F7
S11301B08230C1F08430E9F0813009F044C00BC0D2
S11301C0803261F118F4803111F13DC0803469F15D
S11301D0803891F138C0892F880F890F880F880FD4
S11301E0805D0895892F880F890F880F880F8E5C92
S11301F00895892F880F890F880F880F8C5C0895C4
S1130200892F880F890F880F880F8B5C0895892F99
S1130210880F890F880F880F895C0895892F880FAC
S1130220890F880F880F875C0895892F880F890F9D
S1130230880F880F855C0895892F880F890F880F90
S1130240880F845C089580E008951092800082E015
S113025080936F0010928500109284008DE790E0E7
S1130260909389008093880081E0809381000895B1
S1130270CF93DF93809107078823C1F18091090709
S113028090E0DC01AE5FBB4FFC01EE5FFA4FEC0186
S1130290CE5FD94F4C916081888177DF80910907C7
S11302A0E82FF0E0EE5FF94F908191110FC040917B
S11302B00204609102058091020667DF81E0809369
S11302C0090710920B0710920A0703C08F5F8093EF
S11302D00907E0910907F0E0EE0FFF1FEE5FFD4F05
S11302E0808191819093030780930207DF91CF91DE
S11302F008951F920F920FB60F9211240BB60F920E
S11303002F933F934F935F936F937F938F939F9319
S1130310AF93BF93EF93FF9380910A0790910B07DC
S1130320019690930B0780930A072091070740E4F6
S1130330249F900111248091080740E8849FC00104
S11303401124822B90910907892B809585B92091DE
S11303500A0730910B078091020790910307281731
S1130360390729F480910A0790910B0781DFFF91E7
S1130370EF91BF91AF919F918F917F916F915F9119
S11303804F913F912F910F900BBE0F900FBE0F9086
S11303901F90189590910807992381F1909109076E
S11303A0292F30E0F901EE5FF94F8083F901EE5F08
S11303B0FA4F608380910407F901EE5FFB4F80835D
S11303C091110CC0F901EE0FFF1FEE5FFD4F11827A
S11303D0108210920B0710920A070BC080910A0733
S11303E090910B07F901EE0FFF1FEE5FFD4F918314
S11303F08083809109078F5F80930907089581E0C6
S1130400809308071092090710920B0710920A07AD
S113041008954091090740FF1FC0842F90E09C017C
S113042021503109FC01EE5FF94FD901AE5FB94F9C
S11304305C915F7E5083F901EE5FFA4F2081FC01ED
S1130440EE5FFA4F208320910407FC01EE5FFB4F1F
S113045020834F5F409309078091090790E0FC01D6
S1130460EE5FF94F1082FC01EE5FFA4F1082FC013F
S1130470EE5FFB4F108220910A0730910B07FC01BD
S1130480EE0FFF1FEE5FFD4F3183208310920807AC
S11304900895CF93C82F86FF11C08091070781115B
S11304A012C081E0809307071092090780E090E072
S11304B0DFDE10920B0710920A0705C08091070730
S11304C0811110920707CC2334F48091080781111D
S11304D007C095DF05C080910807813009F499DFD2
S11304E0CF9108951FDE80E895E224DEAEDE789495
S11304F0D0E001C0DC2FC9B1C09586B1809580934E
S1130500060780910607C5DF9D2F9C27892F8C2322
S113051089F0D0910607DC70D695D695D06942DE75
S1130520182F682F8D2F36DF40910407612F8D2FF0
S11305302CDEE0CF892F8D23E9F2109106071C7081
S11305401695169510682EDED82F682F812F22DF7E
S1130550409104076D2F812F18DECCCF1F920F928C
S11305600FB60F9211240BB60F928F939F93EF93B4
S1130570FF938091790080930407ECE7F0E0908189
S1130580809106078C7086958695907E892B808352
S1130590FF91EF919F918F910F900BBE0F900FBE23
S11305A00F901F9018951F920F920FB60F9211245F
S11305B016BC0F900FBE0F901F901895F894FFCFA4
S11305C0FF006400C8002C019001F4010000000049
S11305D00000000000000000000000000000000017
S11305E00000000000000000000000000000000007
S11305F000000000000000000000000000000000F7
S113060000000000000000000000000000000000E6
S113061000000000000000000000000000000000D6
S113062000000000000000000000000000000000C6
S113063000000000000000000000000000000000B6
S113064000000000000000000000000000000000A6
S11306500000000000000000000000000000000096
S11306600000000000000000000000000000000086
S11306700000000000000000000000000000000076
S11306800000000000000000000000000000000066
S11306900000000000000000000000000000000056
S11306A00000000000000000000000000000000046
S11306B00000000000000000000000000000000036
S11306C00000000000000000000000000000000026
S11306D00000000000000000000000000000000016
S11306E00000000000000000000000000000000006
S11306F000000000000000000000000000000000F6
S113070000000000000000000000000000000000E5
S113071000000000000000000000000000000000D5
S113072000000000000000000000000000000000C5
S113073000000000000000000000000000000000B5
S113074000000000000000000000000000000000A5
S11307500000000000000000000000000000000095
S11307600000000000000000000000000000000085
S11307700000000000000000000000000000000075
S11307800000000000000000000000000000000065
S11307900000000000000000000000000000000055
S11307A00000000000000000000000000000000045
S11307B00000000000000000000000000000000035
S11307C00000646464646400000000000000000031
S11307D00000000000000000000000000000000015
S11307E00000000000000000000000000000000005
S11307F000000000000000000000000000000000F5
S113080000000000000000000000000000000000E4
S113081000000000000000000000000000000000D4
S113082000000000000000000000000000000000C4
S113083000000000000000000000000000000000B4
S113084000000000000000000000000000000000A4
S11308500000000000000000000000000000000094
S11308600000000000000000000000000000000084
S11308700000000000000000000000000000000074
S11308800000000000000000000000000000000064
S11308900000000000000000000000000000000054
S11308A00000000000000000000000000000000044
S11308B00000000000000000000000000000000034
S11308C00000464748494B000000000000000000BB
S11308D00000000000000000000000000000000014
S11308E00000000000000000000000000000000004
S11308F000000000000000000000000000000000F4
S113090000000000000000000000000000000000E3
S113091000000000000000000000000000000000D3
S113092000000000000000000000000000000000C3
S113093000000000000000000000000000000000B3
S113094000000000000000000000000000000000A3
S11309500000000000000000000000000000000093
S11309600000000000000000000000000000000083
S11309700000000000000000000000000000000073
S11309800000000000000000000000000000000063
S11309900000000000000000000000000000000053
S11309A00000000000000000000000000000000043
S11309B00000000000000000000000000000000033
S11309C00000909090909000000000000000000053
S11309D00000000000000000000000000000000013
S11309E00000000000000000000000000000000003
S11309F000000000000000000000000000000000F3
S1130A0000000000000000000000000000000000E2
S1130A1000000000000000000000000000000000D2
S1130A2000000000000000000000000000000000C2
S1130A3000000000000000000000000000000000B2
S1130A4000000000000000000000000000000000A2
S1130A500000000000000000000000000000000092
S1130A600000000000000000000000000000000082
S1130A700000000000000000000000000000000072
S1130A800000000000000000000000000000000062
S1130A900000000000000000000000000000000052
S1130AA00000000000000000000000000000000042
S1130AB00000000000000000000000000000000032
S1090AC000006400C80000
S9030000FC
