S01300004D69646970726F6A6563742E7372656397
S113000071C000008EC000008CC000008AC00000D7
S113001088C0000086C0000084C0000082C00000C8
S113002080C000007EC000007CC000007AC00000D8
S113003078C0000076C0000074C0000072C00000E8
S113004070C00000B8C100006CC000006AC00000AD
S113005068C0000066C0000064C00000A1C10000C8
S113006060C00000DAC000005CC000005AC000009C
S113007058C0000070C1000054C0000052C000000D
S113008050C000004EC000004CC000004AC0000038
S113009048C0000046C0000044C0000042C0000048
S11300A040C000003EC000003CC000003AC0000058
S11300B038C0000036C0000034C0000032C0000068
S11300C030C000002EC000002CC000002AC0000078
S11300D028C0000026C0000024C0000022C0000088
S11300E020C0000011241FBECFEFD1E2DEBFCDBF80
S11300F000E00CBF12E0A0E0B2E0E8E3F4E000E0CE
S11301000BBF02C007900D92A430B107D9F727E0C6
S1130110A4E0B2E001C01D92AC30B207E1F7E1D037
S113012089C16ECF80910402882309F1E09106020F
S1130130EF5FE0930602F0E0EE0FFF1FE45FFB4F7A
S113014080819181892B31F41092060210920A0267
S113015010920902E0910602F0E0EE0FFF1FE45F47
S1130160FB4F808191819093080280930702089548
S113017090910602292F30E0F901E45FFD4F80835E
S1130180F901E45FFC4F608380910002F901E45FB0
S1130190F94F8083F901EE0FFF1FE45FFB4F1182DB
S11301A010829F5F90930602089581E08093050278
S11301B01092060208958091060290E0FC01E45F2B
S11301C0FD4F1082FC01E45FFC4F1082FC01E45FF0
S11301D0F94F1082FC01EE0FFF1FE45FFB4F118209
S11301E01082109205020895CF93DF93C62FD42F67
S11301F090910502913041F4882324F4642F8C2FCC
S1130200B7DF08C0D8DF06C0882324F4CEDF6D2F03
S11302108C2FAEDFDF91CF9108951F920F920FB60E
S11302200F9211248F939F938091C60090E0909336
S11302300202809301029F918F910F900FBE0F9045
S11302401F901895E0ECF0E0908195FFFDCF80932E
S1130250C6000895CF93DF93D62FC42FF3DF8D2FDD
S1130260F1DF8C2F8695EEDFDF91CF91089583E344
S11302708093C4001092C5001092C00088E9809356
S1130280C10086E08093C20008958FEF84B985B9D8
S11302901AB88BB908958830C1F038F4823089F0E7
S11302A0843089F0813059F41AC0803291F018F406
S11302B0803169F004C0803471F0803871F080E0DE
S11302C008958EE3089580E4089581E4089583E415
S11302D0089585E4089587E4089588E408958CE3F7
S11302E00895D3DF80E895E2C2DF789420E001C06E
S11302F02C2F99B1C92FC09595B9922F9C27892F7E
S11303008C2399F0D0910B02DC70D695D695D069E8
S1130310C2DF182F80910B02412F6D2F65DF4091B2
S11303200002612F8D2F96DFE3CF892F822301F303
S1130330D0910B02DC70D695D695D064ACDF182F23
S113034080910B02412F6D2F4FDF40910002612FEE
S11303508D2F80DFCDCF1F920F920FB60F921124F5
S11303600BB60F928F939F93EF93FF938091790035
S113037080930002ECE7F0E0908180910B028C7096
S113038086958695907E892B8083FF91EF919F912E
S11303908F910F900BBE0F900FBE0F901F9018956A
S11303A01F920F920FB60F92112416BC0F900FBE1E
S11303B00F901F9018951F920F920FB60F92112451
S11303C00BB60F922F933F934F935F936F937F934B
S11303D08F939F93AF93BF93EF93FF938091090201
S11303E090910A02019690930A0280930902209147
S11303F0090230910A02809107029091080228179D
S1130400390729F48091090290910A028BDEFF9149
S1130410EF91BF91AF919F918F917F916F915F9178
S11304204F913F912F910F900BBE0F900FBE0F90E5
S10B04301F901895F894FFCF0A
S107043864FF000059
S9030000FC
